:020000040000FA
:100000000C945D000C9485000C9485000C94850084
:100010000C9485000C9485000C9485000C9485004C
:100020000C9485000C9485000C9485000C9485003C
:100030000C9485000C9485000C9485000C9485002C
:100040000C941C020C9485000C948C020C94660297
:100050000C9485000C9485000C9485000C9485000C
:100060000C9485000C94850000000008000201003B
:100070000003040700000000000000000000000072
:10008000250028002B0000000000240027002A0083
:10009000040404040404040402020202020203032E
:1000A0000303030301020408102040800102040836
:1000B0001020010204081020FE0311241FBECFEF00
:1000C000D8E0DEBFCDBF12E0A0E0B1E0E6E6F8E0A8
:1000D00002C005900D92AA38B107D9F723E0AAE82B
:1000E000B2E001C01D92A233B207E1F710E0CDE506
:1000F000D0E004C02197FE010E942B04CC35D1072B
:10010000C9F70E94BE020C9431040C94000090E0E8
:10011000FC01EC55FF4F249180579F4FFC018491C7
:10012000882399F090E0880F991FFC01EA57FF4F50
:10013000A591B491FC01E458FF4F859194918FB73C
:10014000F894EC91E22BEC938FBF0895AF92BF929D
:10015000CF92DF92EF92FF920F931F93CF93DF9393
:100160006C017B018B01040F151FEB015E01AE18C2
:10017000BF08C017D10759F06991D601ED91FC91E4
:100180000190F081E02DC6010995892B79F7C50111
:10019000DF91CF911F910F91FF90EF90DF90CF9063
:1001A000BF90AF900895FC01538D448D252F30E012
:1001B000842F90E0821B930B541710F0CF96089574
:1001C00001970895FC01918D828D981761F0A28DA1
:1001D000AE0FBF2FB11D5D968C91928D9F5F9F7367
:1001E000928F90E008958FEF9FEF0895FC01918D1D
:1001F000828D981731F0828DE80FF11D858D90E08A
:1002000008958FEF9FEF0895FC01918D228D892F26
:1002100090E0805C9F4F821B91098F73992708950E
:1002200085E992E00E94040121E0892B09F420E095
:10023000822F089580E090E0892B29F00E94100120
:1002400081110C9400000895FC01A48DA80FB92F12
:10025000B11DA35ABF4F2C91848D90E001968F73EE
:100260009927848FA689B7892C93A089B1898C910D
:10027000837080648C93938D848D981306C002885C
:10028000F389E02D80818F7D80830895EF92FF9226
:100290000F931F93CF93DF93EC0181E0888F9B8DA9
:1002A0008C8D98131AC0E889F989808185FF15C063
:1002B0009FB7F894EE89FF896083E889F989808186
:1002C0008370806480839FBF81E090E0DF91CF9155
:1002D0001F910F91FF90EF900895F62E0B8D10E077
:1002E0000F5F1F4F0F731127E02E8C8D8E110CC0E6
:1002F0000FB607FCFACFE889F989808185FFF5CF31
:10030000CE010E942401F1CFEB8DEC0FFD2FF11DEA
:10031000E35AFF4FF0829FB7F8940B8FEA89FB896D
:1003200080818062CFCFCF93DF93EC01888D8823CB
:10033000B9F0AA89BB89E889F9898C9185FD03C048
:10034000808186FD0DC00FB607FCF7CF8C9185FF2D
:10035000F2CF808185FFEDCFCE010E942401E9CF4D
:10036000DF91CF91089590E0FC01E859FF4F24916F
:10037000FC01EC55FF4F3491FC01E057FF4FE49135
:10038000EE23C9F0222339F0233001F1A8F4213003
:1003900019F1223029F1F0E0EE0FFF1FE458FF4F72
:1003A000A591B4918FB7F894EC91611126C0309566
:1003B0003E233C938FBF08952730A9F02830C9F021
:1003C000243049F7809180008F7D03C080918000A8
:1003D0008F7780938000DFCF84B58F7784BDDBCFAC
:1003E00084B58F7DFBCF8091B0008F778093B00074
:1003F000D2CF8091B0008F7DF9CF3E2BDACFFC01B8
:1004000001900020E9F73197AF01481B590BBC015F
:1004100085E992E00C94A60082E191E00C94FF0142
:10042000CF93DF930E94FF01EC010E940C028C0F1E
:100430009D1FDF91CF9108951F920F920FB60F92DB
:1004400011242F933F938F939F93AF93BF938091EA
:10045000910290919202A0919302B09194023091F6
:10046000900223E0230F2D3758F50196A11DB11DF1
:10047000209390028093910290939202A093930212
:10048000B093940280918C0290918D02A0918E0283
:10049000B0918F020196A11DB11D80938C029093A3
:1004A0008D02A0938E02B0938F02BF91AF919F9166
:1004B0008F913F912F910F900FBE0F901F90189525
:1004C00026E8230F0296A11DB11DD2CF1F920F92D5
:1004D0000FB60F9211242F933F934F935F936F9317
:1004E0007F938F939F93AF93BF93EF93FF9385E990
:1004F00092E00E942401FF91EF91BF91AF919F91F3
:100500008F917F916F915F914F913F912F910F90BC
:100510000FBE0F901F9018951F920F920FB60F925B
:1005200011242F938F939F93EF93FF93E091A50254
:10053000F091A6028081E091AB02F091AC0282FDC5
:100540001BC090818091AE028F5F8F732091AF02AC
:10055000821741F0E091AE02F0E0EB56FD4F958F2F
:100560008093AE02FF91EF919F918F912F910F9009
:100570000FBE0F901F9018958081F4CF789484B5AA
:10058000826084BD84B5816084BD85B5826085BD8F
:1005900085B5816085BD80916E00816080936E001D
:1005A000109281008091810082608093810080910F
:1005B00081008160809381008091800081608093C0
:1005C00080008091B10084608093B1008091B00080
:1005D00081608093B00080917A00846080937A007B
:1005E00080917A00826080937A0080917A008160A5
:1005F00080937A0080917A00806880937A001092CC
:10060000C100E091A502F091A60282E08083E09112
:10061000A102F091A2021082E091A302F091A40243
:100620008FEC80831092AD02E091A902F091AA02B2
:1006300086E08083E091A702F091A802808180612A
:100640008083E091A702F091A80280818860808376
:10065000E091A702F091A802808180688083E091F8
:10066000A702F091A80280818F7D808387E00E949D
:10067000870086E00E94870085E00E94870084E072
:100680000E94870061E087E00E94B30161E086E09C
:100690000E94B30161E085E00E94B30161E084E063
:1006A0000E94B30185E191E00E94FF010E940C02CB
:1006B0008CE491E00E9410020E940C020E940C0245
:1006C0000E940C0280E0E82E80E0F82E01E010E0AD
:1006D00085E992E00E940401892B81F185E992E08D
:1006E0000E94E200C82F682F85E992E00E9446012F
:1006F00082E691E00E94FF01C13351F510938B0215
:1007000000938A0260E086E00E94B30161E087E026
:100710000E94B3018FE691E00E94100280918A024C
:1007200090918B02892B21F483E692E00E941002C3
:100730000E940C0210928B0210928A02E114F104C2
:1007400039F20E941001882319F20E940000C0CFE4
:10075000C23379F410938B0200938A0260E087E041
:100760000E94B30161E086E00E94B3018DE991E04F
:10077000D3CFC33379F410938B0200938A0260E0E5
:1007800087E00E94B30160E086E00E94B30180ED43
:1007900091E0C2CFC43379F410938B0200938A02A4
:1007A00060E085E00E94B30161E084E00E94B30153
:1007B00087EE91E0B1CFC53379F410938B020093AB
:1007C0008A0260E084E00E94B30161E085E00E945B
:1007D000B30186E192E0A0CFC63309F09FCF10931A
:1007E0008B0200938A0260E085E00E94B30160E022
:1007F00084E00E94B3018AE492E08ECFE5E9F2E062
:100800001382128288EE93E0A0E0B0E084839583A7
:10081000A683B78384E091E09183808385EC90E0A8
:100820009587848784EC90E09787868780EC90E0BA
:10083000918B808B81EC90E0938B828B82EC90E0AB
:10084000958B848B86EC90E0978B868B118E128E25
:10085000138E148E0895EE0FFF1F0590F491E02D76
:100860000994F894FFCF000000004601A600D300D1
:1008700093010401E200F6000D0A00546869732038
:1008800041726475696E6F20436F64652026205045
:10089000726F746575732073696D756C6174696FBF
:1008A0006E2069732064657369676E656420627980
:1008B0003A0044616B7368697468612044697373BA
:1008C000616E6179616B6100203D3D3D3D3D3D3D87
:1008D0003D203E20004669727374204D6F746F7224
:1008E000206973206D6F76696E6720696E20436C96
:1008F0006F636B7769736520446972656374696FB0
:100900006E2E004669727374204D6F746F72206989
:1009100073206D6F76696E6720696E20416E746911
:100920002D436C6F636B77697365204469726563EF
:1009300074696F6E2E004669727374204D6F746F08
:10094000722069732053746F70706564005365631F
:100950006F6E64204D6F746F72206973206D6F76B7
:10096000696E6720696E20436C6F636B776973658E
:1009700020446972656374696F6E2E005365636FFE
:100980006E64204D6F746F72206973206D6F76698D
:100990006E6720696E20416E74692D436C6F636BC6
:1009A0007769736520446972656374696F6E2E00A0
:1009B0005365636F6E64204D6F746F72206973208E
:1009C00053746F707065642E00496E76616C696453
:1009D00020436F6D6D616E642E20506C6561736590
:1009E0002054727920416761696E20212121200005
:107E0000112484B714BE81FFF0D085E080938100F7
:107E100082E08093C00088E18093C10086E0809377
:107E2000C20080E18093C4008EE0C9D0259A86E02C
:107E300020E33CEF91E0309385002093840096BBD3
:107E4000B09BFECF1D9AA8958150A9F7CC24DD24C4
:107E500088248394B5E0AB2EA1E19A2EF3E0BF2EE7
:107E6000A2D0813461F49FD0082FAFD0023811F036
:107E7000013811F484E001C083E08DD089C08234E0
:107E800011F484E103C0853419F485E0A6D080C0E4
:107E9000853579F488D0E82EFF2485D0082F10E0AE
:107EA000102F00270E291F29000F111F8ED06801E7
:107EB0006FC0863521F484E090D080E0DECF843638
:107EC00009F040C070D06FD0082F6DD080E0C81688
:107ED00080E7D80618F4F601B7BEE895C0E0D1E017
:107EE00062D089930C17E1F7F0E0CF16F0E7DF06D8
:107EF00018F0F601B7BEE89568D007B600FCFDCFD4
:107F0000A601A0E0B1E02C9130E011968C91119780
:107F100090E0982F8827822B932B1296FA010C0160
:107F200087BEE89511244E5F5F4FF1E0A038BF0790
:107F300051F7F601A7BEE89507B600FCFDCF97BE46
:107F4000E89526C08437B1F42ED02DD0F82E2BD052
:107F50003CD0F601EF2C8F010F5F1F4F84911BD097
:107F6000EA94F801C1F70894C11CD11CFA94CF0C13
:107F7000D11C0EC0853739F428D08EE10CD085E9AC
:107F80000AD08FE07ACF813511F488E018D01DD067
:107F900080E101D065CF982F8091C00085FFFCCF94
:107FA0009093C60008958091C00087FFFCCF809118
:107FB000C00084FD01C0A8958091C6000895E0E648
:107FC000F0E098E1908380830895EDDF803219F02E
:107FD00088E0F5DFFFCF84E1DECF1F93182FE3DFCA
:107FE0001150E9F7F2DF1F91089580E0E8DFEE27F6
:047FF000FF270994CA
:027FFE00040479
:00000001FF
