:020000040000FA
:100000000C9463000C948B000C948B000C948B006C
:100010000C948B000C948B000C948B000C948C042F
:100020000C948B000C948B000C948B000C948B0024
:100030000C948B000C948B000C948B000C948B0014
:100040000C940E050C948B000C948B000C948B007C
:100050000C948B000C948B000C948B000C948B00F4
:100060000C948B000C948B000000000024002700EF
:100070002A000000000023002600290000000008DC
:10008000000201000003040700000000000000005F
:10009000010204081020408001020408102001021F
:1000A0000408102000000000250028002B00040494
:1000B0000404040404040202020202020303030310
:1000C00003030200F80611241FBECFEFD8E0DEBF05
:1000D000CDBF11E0A0E0B1E0EEE8F1E102C0059093
:1000E0000D92A636B107D9F721E0A6E6B1E001C02E
:1000F0001D92AA39B207E1F710E0C3E6D0E004C0D0
:100100002197FE010E94BF08C236D107C9F70E949D
:1001100058050C94C5080C940000AF92BF92CF9282
:10012000DF92EF92FF920F931F93CF93DF936C01B7
:100130007B018B01040F151FEB015E01AE18BF0898
:10014000C017D10759F06991D601ED91FC9101904A
:10015000F081E02DC6010995892B79F7C501DF9162
:10016000CF911F910F91FF90EF90DF90CF90BF90B4
:10017000AF900895833081F028F4813099F0823077
:10018000A9F008958730A9F08830C9F08430B1F41F
:10019000809180008F7D03C0809180008F77809355
:1001A0008000089584B58F7784BD089584B58F7DD0
:1001B000FBCF8091B0008F778093B000089580913D
:1001C000B0008F7DF9CF1F93CF93DF93282F30E0BE
:1001D000F901E458FF4F8491F901E057FF4FD491A2
:1001E000F901E255FF4FC491CC23A9F0162F8111DC
:1001F0000E94BA00EC2FF0E0EE0FFF1FEC55FF4F0E
:10020000A591B4918FB7F894EC91111108C0D095D5
:10021000DE23DC938FBFDF91CF911F910895DE2BFA
:10022000F8CFCF93DF9390E0FC01E057FF4F24918C
:1002300082559F4FFC0184918823D1F090E0880F74
:10024000991FFC01E859FF4FA591B491FC01EC55B1
:10025000FF4FC591D49161110EC09FB7F8948C9156
:10026000E22FE0958E238C932881E223E8839FBFC1
:10027000DF91CF9108958FB7F894EC91E22BEC9336
:100280008FBFF6CFCF92DF92EF92FF920F931F9323
:10029000CF938B0190910001891759F09F3F09F48A
:1002A0004AC0CF911F910F91FF90EF90DF90CF90B8
:1002B0000895E2ECF0E0C491C7FDF3CF61E00E9445
:1002C0001101C1114CC0980150E040E062E17AE7B1
:1002D00080E090E00E947D0869017A0181E0C81AFF
:1002E000D108E108F10885B5887F846085BD980153
:1002F000220F331FA4EFB1E00E949C0828EE33E0E8
:1003000040E050E00E945B08C13009F4BEC0C2303A
:1003100009F4CDC0C111C5CFC7BC20937E01309375
:100320007F01409380015093810180916E00826033
:1003300080936E00B6CF80930001E2ECF0E0C491B0
:10034000CF3F09F4AECFC13009F440C010F1C23044
:1003500009F45EC0C7FDA5CF61E00E9411019801BC
:1003600050E040E0C23009F079C064E274EF80E010
:1003700090E00E947D0869017A0181E0C81AD108E5
:10038000E108F1088091B100887F85608093B10019
:10039000AECF14BC15BC94B5926094BD95B5916078
:1003A00095BD282F30E0F901E255FF4FE491F0E0D0
:1003B000EE0FFF1FEC55FF4F45915491F901E057A7
:1003C000FF4FE491E0937501C0E078CF1092800078
:1003D000109281009091810098609093810090919B
:1003E0008100916090938100282F30E0F901E2555F
:1003F000FF4FE491F0E0EE0FFF1FEC55FF4F4591EA
:100400005491F901E057FF4FE491E093740156CF06
:100410001092B0001092B1009091B0009260909351
:10042000B0009091B10091609093B100282F30E01E
:10043000F901E255FF4FE491F0E0EE0FFF1FEC559C
:10044000FF4F459154915093730140937201F9010C
:10045000E057FF4FE491E093710130CF60E072E12B
:100460008AE790E00E947D0869017A0181E0C81A5C
:10047000D108E108F108C13009F039CF809181003D
:10048000887F81608093810032CFD0928900C092B2
:10049000880020937A0130937B0140937C01509334
:1004A0007D0180916F00826080936F00FACEC092D0
:1004B000B3002093760130937701409378015093F5
:1004C000790180917000826080937000EACE8E3056
:1004D00008F08E508770806480937C0080917A0051
:1004E000806480937A0080917A0086FDFCCF8091B1
:1004F00078009091790008953FB7F89480916B014E
:1005000090916C01A0916D01B0916E0126B5A89BF0
:1005100005C02F3F19F00196A11DB11D3FBFBA2F95
:10052000A92F982F8827BC01CD01620F711D811D55
:10053000911D42E0660F771F881F991F4A95D1F7DA
:1005400008958F929F92AF92BF92CF92DF92EF92D7
:10055000FF924B015C010E947C026B017C010E94B6
:100560007C026C197D098E099F09683E73408105E4
:100570009105A8F321E0821A9108A108B10888EE3C
:10058000C80E83E0D81EE11CF11C81149104A10463
:10059000B10429F7FF90EF90DF90CF90BF90AF901C
:1005A0009F908F900895089590E080E008958F9235
:1005B0009F92AF92BF920F931F93CF93DF93CDB7CC
:1005C000DEB7A1970FB6F894DEBF0FBECDBF19A25C
:1005D000423008F44AE08E010F5D1F4F842E912CAB
:1005E000B12CA12CA50194010E945B08E62FB90152
:1005F000CA01EA3044F5E05DD801EE938D01232B6A
:10060000242B252B79F790E080E0109769F0FD010D
:1006100001900020E9F73197AF014A1B5B0BBD0148
:1006200082E891E00E948D00A1960FB6F894DEBF9B
:100630000FBECDBFDF91CF911F910F91BF90AF90B3
:100640009F908F900895E95CD7CFFC010190002026
:10065000E9F73197AF01481B590BBC0182E891E0E3
:100660000C948D00CF93DF93EC0160E08E810E94AB
:10067000E30061E08E810E94E30060E08E810E94D1
:10068000E3008BE891E00197F1F7DF91CF910895B6
:10069000CF92DF92EF92FF920F931F93CF93DF934E
:1006A0006C017C0187E0E80EF11CD0E0C0E0062F71
:1006B00010E0B8010C2E02C0759567950A94E2F718
:1006C0006170F70181917F010E94E3002196C4309F
:1006D000D10579F7C601DF91CF911F910F91FF905E
:1006E000EF90DF90CF900C943203CF92DF92EF9295
:1006F000FF920F931F93CF93DF93EC01F62E642F9D
:100700008C810E94E3008D818F3F19F060E00E9490
:10071000E3000F2D10E08F8584FF25C06E0187E078
:10072000C80ED11CF12CE12CB8010E2C02C075951D
:1007300067950A94E2F76170F60181916F010E945A
:10074000E300FFEFEF1AFF0A88E0E816F10461F713
:10075000CE01DF91CF911F910F91FF90EF90DF902D
:10076000CF900C943203B80184E0759567958A9513
:10077000E1F7CE010E9448036F2DCE01DF91CF91AA
:100780001F910F91FF90EF90DF90CF900C94480352
:1007900040E0682F82E891E00C94750381E00E94AC
:1007A000C8038BE39FE10197F1F70895CF93DF939F
:1007B000823029F4909191019860909391018093F7
:1007C00095011092960180E48093970180E18093D7
:1007D000980180E58093990161E0809186010E94F3
:1007E0001101809187018F3F19F061E00E94110192
:1007F00061E0809188010E941101C2E8D1E09E0170
:10080000225831408091910184FD0BC084E090E03A
:1008100021962817390744F461E08E810E94110166
:10082000EECF88E090E0F4CF8BE39DE00197F1F705
:1008300060E0809186010E94E30060E08091880181
:100840000E94E300809187018F3F19F060E00E94D1
:10085000E3008091910184FD34C063E082E891E07F
:100860000E944803CBE4D6E4CE010197F1F763E0A0
:1008700082E891E00E9448032197F1F763E082E863
:1008800091E00E94480383E592E00197F1F762E06E
:1008900082E891E00E9448038091910180620E9469
:1008A000C80384E0809392018CE00E94C8030E94F8
:1008B000CE0382E08093930186E0DF91CF910C9488
:1008C000C80380620E94C8038BE496E40197F1F7A5
:1008D0008091910180620E94C80383E592E00197B4
:1008E000F1F78091910180620E94C803D5CF909169
:1008F0009501691710F06FEF690FE62FF0E0EE57E2
:10090000FE4F9489890F80680C94C80341E00E94CF
:10091000750381E090E008951F920F920FB60F9239
:1009200011242F933F934F935F936F937F938F93F4
:100930009F93AF93BF93EF93FF9380917601909134
:100940007701A0917801B0917901892B8A2B8B2BAB
:10095000D1F190917101E0917201F0917301808168
:10096000892780838091760190917701A091780109
:10097000B0917901181619061A061B069CF480918D
:10098000760190917701A0917801B091790101975A
:10099000A109B1098093760190937701A093780122
:1009A000B0937901FF91EF91BF91AF919F918F919A
:1009B0007F916F915F914F913F912F910F900FBE5B
:1009C0000F901F90189580910001E2ECF0E0E49107
:1009D0009FEF90930001E13051F030F0E23069F088
:1009E00060E00E94E300DECF10926E00F9CF90919C
:1009F0006F009D7F90936F00F3CF909170009D7F6B
:100A00009093700091E09093B0009091B100987F26
:100A100094609093B1001092B300E2CF1F920F92B6
:100A20000FB60F9211242F933F938F939F93AF9301
:100A3000BF938091670190916801A0916901B09185
:100A40006A013091660123E0230F2D3758F5019696
:100A5000A11DB11D209366018093670190936801E9
:100A6000A0936901B0936A0180916B0190916C0130
:100A7000A0916D01B0916E010196A11DB11D8093F1
:100A80006B0190936C01A0936D01B0936E01BF91C7
:100A9000AF919F918F913F912F910F900FBE0F902B
:100AA0001F90189526E8230F0296A11DB11DD2CFE5
:100AB000789484B5826084BD84B5816084BD85B539
:100AC000826085BD85B5816085BD80916E00816045
:100AD00080936E00109281008091810082608093EB
:100AE00081008091810081608093810080918000ED
:100AF0008160809380008091B10084608093B10018
:100B00008091B00081608093B00080917A00846011
:100B100080937A0080917A00826080937A0080913D
:100B20007A00816080937A0080917A008068809357
:100B30007A001092C10082E00E94D6030E94CE0388
:100B400061E08DE00E94110160E087E00E941101E8
:100B500061E089E00E94110182E10E946702BC010C
:100B6000990F880B990B0E944E0720E030E040E877
:100B70005AE30E94B20720E030E44CE955E40E94B9
:100B8000B2070E941607CB016AE070E00E94470896
:100B90007093700160936F0160E080E00E947704C1
:100BA0008DE091E00E94250361E080E00E947704DF
:100BB00089E191E00E94250368EE73E080E090E017
:100BC0000E94A1020E94CE030E94CE0360E080E05A
:100BD0000E9477048DE091E00E94250361E080E0AF
:100BE0000E94770488E291E00E94250368EE73E09A
:100BF00080E090E00E94A10293E8E92E90E0F92EB7
:100C000027E9C22E20E0D22E35EBA32E30E0B32E02
:100C100000E010E00E94CE038EE00E946702EC012B
:100C200060E080E00E94770486E391E00E94250363
:100C300060E085E00E94770440906F015090700161
:100C4000052C000C660877084AE0C301B20177FE64
:100C50000EC041E06DE282E891E00E9475036627D4
:100C60007727CB0164197509860997094AE00E9424
:100C7000D70260E087E00E9477048CE391E00E9455
:100C80002503CD3B22E0D2070CF433C060E08BE0BB
:100C90000E9477048FE391E00E94250361E08BE0DE
:100CA0000E94770483E491E00E942503F701849178
:100CB000F6019490F5018490882009F44AC08111CE
:100CC0000E94BA00E82DF0E0EE0FFF1FEE58FF4F34
:100CD000A591B4918C919822E1F161E08DE00E94A0
:100CE000E30061E080E00E94770488E491E00E94E4
:100CF0002503CE018C5291408139914008F06DC09E
:100D000060E08BE00E94770489E591E00E94250372
:100D100061E08BE00E94770483E491E00E94250368
:100D200060E08DE00E94E30061E080E00E947704D3
:100D300080E591E00E94250368EE73E080E090E09A
:100D40000E94A1020115110509F464CF0E94000060
:100D500061CF60E08DE00E94E30061E080E00E94EE
:100D6000770480E591E00E94250366E071E089E068
:100D70000E94420164EF71E080E090E00E94A102D5
:100D800066E271E089E00E94420164EF71E080E078
:100D900090E00E94A1026AE471E089E00E944201B1
:100DA00064EF71E080E090E00E94A1026DE571E0E7
:100DB00089E00E94420164EF71E080E090E00E94CF
:100DC000A10268E871E089E00E94420164EF71E0ED
:100DD00080E090E00E94A1028CCFCC32D1400CF098
:100DE000ABCF60E08BE00E9477048FE591E08ECF7F
:100DF000E2E8F1E01382128285E091E09183808342
:100E00008CE084838FEF85838BE0868385E0878306
:100E100084E0808783E0818782E08287138614865E
:100E200015861686178681E00C94D6030E941D074E
:100E30006894B1110C94AC0708950E94910788F052
:100E40009F5798F0B92F9927B751B0F0E1F0660F8E
:100E5000771F881F991F1AF0BA95C9F714C0B130CF
:100E600091F00E94AB07B1E008950C94AB07672F97
:100E7000782F8827B85F39F0B93FCCF386957795FE
:100E80006795B395D9F73EF49095809570956195E7
:100E90007F4F8F4F9F4F0895E89409C097FB3EF412
:100EA00090958095709561957F4F8F4F9F4F9923B7
:100EB000A9F0F92F96E9BB279395F6958795779535
:100EC0006795B795F111F8CFFAF4BB0F11F460FFF5
:100ED0001BC06F5F7F4F8F4F9F4F16C0882311F04D
:100EE00096E911C0772321F09EE8872F762F05C061
:100EF000662371F096E8862F70E060E02AF09A95FC
:100F0000660F771F881FDAF7880F9695879597F9F0
:100F1000089557FD9058440F551F59F05F3F71F0E9
:100F20004795880F97FB991F61F09F3F79F0879550
:100F30000895121613061406551FF2CF4695F1DFD9
:100F400008C0161617061806991FF1CF8695710569
:100F5000610508940895E894BB2766277727CB019D
:100F600097F908950E94C5070C9436080E94280836
:100F700038F00E942F0820F0952311F00C941F08E0
:100F80000C94250811240C94AC070E94890770F377
:100F9000959FC1F3950F50E0551F629FF001729F1E
:100FA000BB27F00DB11D639FAA27F00DB11DAA1F2D
:100FB000649F6627B00DA11D661F829F2227B00D7A
:100FC000A11D621F739FB00DA11D621F839FA00D05
:100FD000611D221F749F3327A00D611D231F849F55
:100FE000600D211D822F762F6A2F11249F575040AC
:100FF0009AF0F1F088234AF0EE0FFF1FBB1F661F27
:10100000771F881F91505040A9F79E3F510580F0EF
:101010000C941F080C94AC075F3FE4F3983ED4F3A4
:10102000869577956795B795F795E7959F5FC1F793
:10103000FE2B880F911D9695879597F9089597F93E
:101040009F6780E870E060E008959FEF80EC08956E
:1010500000240A9416161706180609060895002497
:101060000A9412161306140605060895092E039411
:10107000000C11F4882352F0BB0F40F4BF2B11F485
:1010800060FF04C06F5F7F4F8F4F9F4F089597FBA6
:10109000072E16F4009407D077FD09D00E94AB0804
:1010A00007FC05D03EF4909581959F4F089570956B
:1010B00061957F4F0895A1E21A2EAA1BBB1BFD016B
:1010C0000DC0AA1FBB1FEE1FFF1FA217B307E40727
:1010D000F50720F0A21BB30BE40BF50B661F771F7F
:1010E000881F991F1A9469F760957095809590955F
:1010F0009B01AC01BD01CF010895052E97FB1EF4A5
:1011000000940E94940857FD07D00E945B0807FCDA
:1011100003D04EF40C949408509540953095219549
:101120003F4F4F4F5F4F0895909580957095619513
:101130007F4F8F4F9F4F0895A29FB001B39FC00173
:10114000A39F700D811D1124911DB29F700D811DF3
:101150001124911D0895AA1BBB1B51E107C0AA1FB2
:10116000BB1FA617B70710F0A61BB70B881F991F48
:101170005A95A9F780959095BC01CD010895EE0F81
:10118000FF1F0590F491E02D0994F894FFCFFF0024
:1011900000000086048D00D402D30250726F6A658D
:1011A00063742042793A0054686520546563686E20
:1011B0006F637261740053616E6465736820486583
:1011C0006764650054454D503A002A430044525923
:1011D00000534F494C0050554D503A4F4E0050551A
:1011E0004D503A4F4646004D4F49535400534F47D8
:0411F000475900005B
:107E0000112484B714BE81FFF0D085E080938100F7
:107E100082E08093C00088E18093C10086E0809377
:107E2000C20080E18093C4008EE0C9D0259A86E02C
:107E300020E33CEF91E0309385002093840096BBD3
:107E4000B09BFECF1D9AA8958150A9F7CC24DD24C4
:107E500088248394B5E0AB2EA1E19A2EF3E0BF2EE7
:107E6000A2D0813461F49FD0082FAFD0023811F036
:107E7000013811F484E001C083E08DD089C08234E0
:107E800011F484E103C0853419F485E0A6D080C0E4
:107E9000853579F488D0E82EFF2485D0082F10E0AE
:107EA000102F00270E291F29000F111F8ED06801E7
:107EB0006FC0863521F484E090D080E0DECF843638
:107EC00009F040C070D06FD0082F6DD080E0C81688
:107ED00080E7D80618F4F601B7BEE895C0E0D1E017
:107EE00062D089930C17E1F7F0E0CF16F0E7DF06D8
:107EF00018F0F601B7BEE89568D007B600FCFDCFD4
:107F0000A601A0E0B1E02C9130E011968C91119780
:107F100090E0982F8827822B932B1296FA010C0160
:107F200087BEE89511244E5F5F4FF1E0A038BF0790
:107F300051F7F601A7BEE89507B600FCFDCF97BE46
:107F4000E89526C08437B1F42ED02DD0F82E2BD052
:107F50003CD0F601EF2C8F010F5F1F4F84911BD097
:107F6000EA94F801C1F70894C11CD11CFA94CF0C13
:107F7000D11C0EC0853739F428D08EE10CD085E9AC
:107F80000AD08FE07ACF813511F488E018D01DD067
:107F900080E101D065CF982F8091C00085FFFCCF94
:107FA0009093C60008958091C00087FFFCCF809118
:107FB000C00084FD01C0A8958091C6000895E0E648
:107FC000F0E098E1908380830895EDDF803219F02E
:107FD00088E0F5DFFFCF84E1DECF1F93182FE3DFCA
:107FE0001150E9F7F2DF1F91089580E0E8DFEE27F6
:047FF000FF270994CA
:027FFE00040479
:00000001FF
