:020000040000FA
:100000000C9462000C9414040C94ED030C948A007C
:100010000C948A000C948A000C948A000C948A0038
:100020000C948A000C948A000C948A000C948A0028
:100030000C948A000C948A000C948A000C948A0018
:100040000C94A3030C948A000C9471030C944B033E
:100050000C948A000C948A000C948A000C948A00F8
:100060000C948A000C948A000000000024002700F1
:100070002A0000000000250028002B0000000008D6
:10008000000201000003040700000000000000005F
:1000900000000000230026002900040404040404D6
:1000A0000404020202020202030303030303010227
:1000B00004081020408001020408102001020408F6
:1000C0001020E30611241FBECFEFD8E0DEBFCDBF66
:1000D00012E0A0E0B1E0E4E1F1E102C005900D9290
:1000E000A632B107D9F722E0A6E2B2E001C01D9224
:1000F000A43DB207E1F710E0C2E6D0E004C02197CA
:10010000FE010E948208C136D107C9F70E9480040F
:100110000C9488080C940000AF92BF92CF92DF92AB
:10012000EF92FF920F931F93CF93DF936C017B01AC
:100130008B01040F151FEB015E01AE18BF08C0173D
:10014000D10759F06991D601ED91FC910190F081B0
:10015000E02DC6010995892B79F7C501DF91CF9173
:100160001F910F91FF90EF90DF90CF90BF90AF90D5
:100170000895FC01538D448D252F30E0842F90E0AD
:10018000821B930B541710F0CF9608950197089592
:10019000FC01918D828D981761F0A28DAE0FBF2F5B
:1001A000B11D5D968C91928D9F5F9F73928F90E0B1
:1001B00008958FEF9FEF0895FC01918D828D981720
:1001C00031F0828DE80FF11D858D90E008958FEF5D
:1001D0009FEF0895FC01918D228D892F90E0805C26
:1001E0009F4F821B91098F739927089587E392E0AF
:1001F0000E94EA0021E0892B09F420E0822F089573
:1002000080E090E0892B29F00E94F60081110C9487
:1002100000000895FC01A48DA80FB92FB11DA35AA9
:10022000BF4F2C91848D90E001968F739927848F16
:10023000A689B7892C93A089B1898C918370806439
:100240008C93938D848D981306C00288F389E02DDA
:1002500080818F7D80830895EF92FF920F931F938B
:10026000CF93DF93EC0181E0888F9B8D8C8D981369
:100270001AC0E889F989808185FF15C09FB7F89475
:10028000EE89FF896083E889F989808183708064C1
:1002900080839FBF81E090E0DF91CF911F910F910C
:1002A000FF90EF900895F62E0B8D10E00F5F1F4F1B
:1002B0000F731127E02E8C8D8E110CC00FB607FC2A
:1002C000FACFE889F989808185FFF5CFCE010E94B8
:1002D0000A01F1CFEB8DEC0FFD2FF11DE35AFF4F1B
:1002E000F0829FB7F8940B8FEA89FB898081806246
:1002F000CFCFCF93DF93EC01888D8823B9F0AA8903
:10030000BB89E889F9898C9185FD03C0808186FDD0
:100310000DC00FB607FCF7CF8C9185FFF2CF80811F
:1003200085FFEDCFCE010E940A01E9CFDF91CF9189
:100330000895833081F028F4813099F08230A9F05B
:1003400008958730A9F08830C9F08430B1F48091E5
:1003500080008F7D03C0809180008F778093800024
:10036000089584B58F7784BD089584B58F7DFBCFC4
:100370008091B0008F778093B00008958091B00095
:100380008F7DF9CFCF93DF93282F30E0F901E45828
:10039000FF4F8491F901E255FF4FD491F901E656E0
:1003A000FF4FC491CC23A1F081110E949901EC2F41
:1003B000F0E0EE0FFF1FE057FF4FA591B491EC91D5
:1003C000ED2381E090E009F480E0DF91CF91089582
:1003D00080E090E0FACF1F93CF93DF93282F30E097
:1003E000F901E458FF4F8491F901E255FF4FD49190
:1003F000F901E656FF4FC491CC23A9F0162F8111C5
:100400000E949901EC2FF0E0EE0FFF1FEE58FF4F16
:10041000A591B4918FB7F894EC91111108C0D095C3
:10042000DE23DC938FBFDF91CF911F910895DE2BE8
:10043000F8CFCF93DF9390E0FC01E255FF4F24917A
:1004400086569F4FFC0184918823D1F090E0880F5D
:10045000991FFC01E859FF4FA591B491FC01EE589A
:10046000FF4FC591D49161110EC09FB7F8948C9144
:10047000E22FE0958E238C932881E223E8839FBFAF
:10048000DF91CF9108958FB7F894EC91E22BEC9324
:100490008FBFF6CF3FB7F89480912B0290912C023A
:1004A000A0912D02B0912E0226B5A89B05C02F3F2A
:1004B00019F00196A11DB11D3FBFBA2FA92F982F8A
:1004C0008827BC01CD01620F711D811D911D42E085
:1004D000660F771F881F991F4A95D1F708958F924D
:1004E0009F92AF92BF92CF92DF92EF92FF924B0119
:1004F0005C010E944A026B017C010E944A026C1955
:100500007D098E099F09683E734081059105A8F316
:1005100021E0821A9108A108B10888EEC80E83E094
:10052000D81EE11CF11C81149104A104B10429F727
:10053000FF90EF90DF90CF90BF90AF909F908F9003
:100540000895089580913502909136028130910589
:10055000A1F480912F0290913002A0913102B091CC
:1005600032020196A11DB11D80932F02909330029B
:10057000A0933102B093320208950196E9F7809179
:100580002F0290913002A0913102B0913202019776
:10059000A109B109E9CFFC0101900020E9F73197E9
:1005A000AF01481B590BBC0187E392E00C948C000F
:1005B0008F929F92AF92BF920F931F93CF93DF932F
:1005C000CDB7DEB7A1970FB6F894DEBF0FBECDBF93
:1005D00019A2423008F44AE08E010F5D1F4F842EAD
:1005E000912CB12CA12CA50194010E944108E62F69
:1005F000B901CA01EA30F4F4E05DD801EE938D014F
:10060000232B242B252B79F790E080E0109719F00D
:10061000CD010E94CB02A1960FB6F894DEBF0FBEAB
:10062000CDBFDF91CF911F910F91BF90AF909F9061
:100630008F900895E95CE1CFCF92DF92EF92FF9225
:10064000CF93DF936B017C016DE287E392E00E9420
:100650002C01EC0166277727CB016C197D098E09E7
:100660009F094AE00E94D8028C0F9D1FDF91CF9115
:10067000FF90EF90DF90CF900895CF93DF930E948B
:10068000CB02EC0186E191E00E94CB028C0F9D1F12
:10069000DF91CF9108951F920F920FB60F92112400
:1006A0002F933F934F935F936F937F938F939F937A
:1006B000AF93BF93EF93FF9387E392E00E940A0109
:1006C000FF91EF91BF91AF919F918F917F916F912A
:1006D0005F914F913F912F910F900FBE0F901F9000
:1006E00018951F920F920FB60F9211242F938F938C
:1006F0009F93EF93FF93E0914702F091480280812E
:10070000E0914D02F0914E0282FD1BC090818091DC
:1007100050028F5F8F7320915102821741F0E09158
:100720005002F0E0E95CFD4F958F80935002FF91FD
:10073000EF919F918F912F910F900FBE0F901F906F
:1007400018958081F4CF1F920F920FB60F9211244B
:100750002F933F938F939F93AF93BF9380912702E3
:1007600090912802A0912902B0912A02309126028C
:1007700023E0230F2D3758F50196A11DB11D2093BD
:1007800026028093270290932802A0932902B09317
:100790002A0280912B0290912C02A0912D02B091FF
:1007A0002E020196A11DB11D80932B0290932C0265
:1007B000A0932D02B0932E02BF91AF919F918F9184
:1007C0003F912F910F900FBE0F901F90189526E824
:1007D000230F0296A11DB11DD2CF1F920F920FB60B
:1007E0000F9211242F933F934F935F936F937F93B7
:1007F0008F939F93AF93BF93EF93FF93E091020189
:10080000F09103010995FF91EF91BF91AF919F91F5
:100810008F917F916F915F914F913F912F910F90A9
:100820000FBE0F901F9018951F920F920FB60F9248
:1008300011242F933F934F935F936F937F938F93E5
:100840009F93AF93BF93EF93FF93E0910001F091DB
:1008500001010995FF91EF91BF91AF919F918F9108
:100860007F916F915F914F913F912F910F900FBEAC
:100870000F901F901895CF92DF92EF92FF920F93F7
:100880001F93E82FF92F05C00150110921093109E3
:1008900061F1908196239417B9F305C001501109B5
:1008A0002109310911F1908196239413F7CFC12CBE
:1008B000D12CE12CF12C0AC08FEFC81AD80AE80A13
:1008C000F80A0C151D052E053F0579F08081862359
:1008D000841791F36C2D7D2D8E2D9F2D1F910F91DF
:1008E000FF90EF90DF90CF90089560E070E080E09F
:1008F00090E01F910F91FF90EF90DF90CF900895BF
:10090000789484B5826084BD84B5816084BD85B5EA
:10091000826085BD85B5816085BD80916E008160F6
:1009200080936E001092810080918100826080939C
:10093000810080918100816080938100809180009E
:100940008160809380008091B10084608093B100C9
:100950008091B00081608093B00080917A008460C3
:1009600080937A0080917A00826080937A008091EF
:100970007A00816080937A0080917A008068809309
:100980007A001092C100E0914702F091480282E0A3
:100990008083E0914302F09144021082E09145028D
:1009A000F09146028FEC808310924F02E0914B024F
:1009B000F0914C0286E08083E0914902F0914A0276
:1009C000808180618083E0914902F0914A028081B8
:1009D00088608083E0914902F0914A0280818068BA
:1009E0008083E0914902F0914A0280818F7D80836B
:1009F00061E08BE00E94190261E08AE00E94190226
:100A000061E08CE00E94190282EA92E09093010179
:100A100080930001809169008C7F816080936900E0
:100A2000E89A61E089E00E94190261E088E00E9492
:100A3000190261E087E00E94190260E08EE00E94E6
:100A4000190260E08FE00E94190260E080E10E94DC
:100A5000190260E081E10E94190261E086E00E94D3
:100A6000190260E085E00E94190293E0E92EF12C62
:100A700023E2C22ED12C3FE9232E30E0332E4FE269
:100A8000442E512C612C712C50E0A52E50E0B52E37
:100A900088248A94982C89E191E00E943D038EE09D
:100AA0000E94C201892B09F0CFC08FE00E94C201D1
:100AB000892B09F0C9C081E10E94C201892B09F08C
:100AC000C3C080E10E94C201892B09F0BDC060E073
:100AD0008BE00E94EB0160E08AE00E94EB0160E0A5
:100AE00089E00E94EB0160E088E00E94EB0161E098
:100AF0008CE00E94190260E08CE00E94EB0161E052
:100B000087E00E94190260E087E00E94EB0180E527
:100B100091E00E943D0368EE73E080E090E00E9467
:100B20006F0260E086E00E94EB01C7010197F1F7D8
:100B300061E086E00E94EB01C6010197F1F760E0F9
:100B400086E00E94EB01E3EBF0E06491F101849117
:100B5000E82FF0E0EE0FFF1FE057FF4F85919491D3
:100B600000E412E42FE030E0462F0E943B046115C0
:100B700071058105910529F06F5F7F4F8F4F9F4F62
:100B80009F700E94480726E933E44BE05DE30E9432
:100B9000AC0720E030E040E05FE30E94AC070E9439
:100BA0001007709334026093330284ED91E00E9449
:100BB000CB026091330270913402072E000C880B37
:100BC000990B97FFF3C00E941C0386E191E00E94FD
:100BD000CB0280913302909134024F970CF0EAC01F
:100BE00061E08DE00E94EB0184EF91E00E943D0303
:100BF0008EE092E00E94CB0260912F027091300251
:100C00008091310290913202A30192010E94630807
:100C1000CA01B90197FFD3C00E941C0386E191E08D
:100C20000E94CB0268EC70E080E090E00E946F02CE
:100C3000A114B10409F42FCF0E94F600882309F40F
:100C40002ACF0E94000027CF8EE00E94C201EC0153
:100C5000019739F561E08BE00E94EB0160E08AE0EA
:100C60000E94EB01D0933602C093350261E089E027
:100C70000E94EB0160E088E00E94EB0161E08CE003
:100C80000E94190261E08CE00E94EB0161E087E0C4
:100C90000E94190261E087E00E94EB0184E691E086
:100CA00038CF8FE00E94C201019739F560E08BE0F8
:100CB0000E94EB0161E08AE00E94EB019092360213
:100CC0008092350260E089E00E94EB0161E088E0FB
:100CD0000E94EB0161E08CE00E94190261E08CE06F
:100CE0000E94EB0161E087E00E94190261E087E069
:100CF0000E94EB0181E891E00CCF81E10E94C201EA
:100D0000019739F561E08BE00E94EB0160E08AE039
:100D10000E94EB01109236021092350260E089E0E9
:100D20000E94EB0160E088E00E94EB0161E08CE052
:100D30000E94190261E08CE00E94EB0161E087E013
:100D40000E94190260E087E00E94EB018FE991E0C8
:100D5000E0CE80E10E94C201019709F0E2CE60E09E
:100D60008BE00E94EB0160E08AE00E94EB011092B0
:100D700036021092350261E089E00E94EB0160E0EA
:100D800088E00E94EB0161E08CE00E94190260E0C3
:100D90008CE00E94EB0161E087E00E94190261E0B3
:100DA00087E00E94EB0189EB91E0B3CE4AE00E941C
:100DB000D8020BCF60E08DE00E94EB0119CF4AE032
:100DC0000E94D8022BCFE7E3F2E01382128288EE72
:100DD00093E0A0E0B0E084839583A683B78388E0A6
:100DE00091E09183808385EC90E09587848784EC03
:100DF00090E09787868780EC90E0918B808B81ECE8
:100E000090E0938B828B82EC90E0958B848B86ECC8
:100E100090E0978B868B118E128E138E148E089510
:100E20000E9417076894B1110C94A60708950E94B8
:100E30008B0788F09F5798F0B92F9927B751B0F0DA
:100E4000E1F0660F771F881F991F1AF0BA95C9F74E
:100E500014C0B13091F00E94A507B1E008950C9440
:100E6000A507672F782F8827B85F39F0B93FCCF3F3
:100E7000869577956795B395D9F73EF490958095CB
:100E8000709561957F4F8F4F9F4F0895E89409C0EB
:100E900097FB3EF490958095709561957F4F8F4FAD
:100EA0009F4F9923A9F0F92F96E9BB279395F695C3
:100EB000879577956795B795F111F8CFFAF4BB0F41
:100EC00011F460FF1BC06F5F7F4F8F4F9F4F16C0A5
:100ED000882311F096E911C0772321F09EE8872F2F
:100EE000762F05C0662371F096E8862F70E060E0EB
:100EF0002AF09A95660F771F881FDAF7880F969564
:100F0000879597F9089557FD9058440F551F59F04C
:100F10005F3F71F04795880F97FB991F61F09F3FE6
:100F200079F087950895121613061406551FF2CF0F
:100F30004695F1DF08C0161617061806991FF1CF5F
:100F400086957105610508940895E894BB27662786
:100F50007727CB0197F908950E94BF070C943008BA
:100F60000E94220838F00E94290820F0952311F0F1
:100F70000C9419080C941F0811240C94A6070E94C5
:100F8000830770F3959FC1F3950F50E0551F629F43
:100F9000F001729FBB27F00DB11D639FAA27F00DD2
:100FA000B11DAA1F649F6627B00DA11D661F829FF9
:100FB0002227B00DA11D621F739FB00DA11D621FDE
:100FC000839FA00D611D221F749F3327A00D611DFB
:100FD000231F849F600D211D822F762F6A2F1124DD
:100FE0009F5750409AF0F1F088234AF0EE0FFF1F10
:100FF000BB1F661F771F881F91505040A9F79E3F67
:10100000510580F00C9419080C94A6075F3FE4F397
:10101000983ED4F3869577956795B795F795E795BC
:101020009F5FC1F7FE2B880F911D9695879597F9C5
:10103000089597F99F6780E870E060E008959FEF5A
:1010400080EC089500240A9416161706180609065F
:10105000089500240A94121613061406050608952E
:10106000092E0394000C11F4882352F0BB0F40F4B6
:10107000BF2B11F460FF04C06F5F7F4F8F4F9F4FF6
:101080000895A1E21A2EAA1BBB1BFD010DC0AA1FC9
:10109000BB1FEE1FFF1FA217B307E407F50720F0E1
:1010A000A21BB30BE40BF50B661F771F881F991F5C
:1010B0001A9469F760957095809590959B01AC01A5
:1010C000BD01CF010895052E97FB1EF400940E94E8
:1010D0007A0857FD07D00E94410807FC03D04EF460
:1010E0000C947A0850954095309521953F4F4F4F7D
:1010F0005F4F089590958095709561957F4F8F4FC4
:101100009F4F0895EE0FFF1F0590F491E02D099475
:10111000F894FFCFA102A102000000002C018C0076
:10112000B9007901EA00C800DC000D0A002A2A2A69
:101130002A2A2A2A2A2A2A2A2A2A2A2A2A2A2A2A0F
:101140002A2A2A2A2A2A2A2A2A2A2A2A2A2A2A2AFF
:101150002A2A2A2A2A2A2A2A2A2A2A2A2A2A2A2AEF
:101160002A2A2A00726F626F74206973206E6F746E
:10117000206D6F76696E670074686520526F626FCC
:1011800074206973206D6F76696E6720464F5257E1
:10119000415244200074686520526F626F74206968
:1011A00073206D6F76696E67204241434B57415201
:1011B00044200074686520526F626F742069732048
:1011C0006D6F76696E67204C4546542000746865E3
:1011D00020526F626F74206973206D6F76696E673D
:1011E000205249474854200064697374616E6365F6
:1011F0002066726F6D206F62737461636C65206925
:101200006E20636D203D20005741524E494E4721CC
:1012100021206F626A65637420697320636C6F7349
:1012200065004E756D626572206F6620726F626F29
:0A12300074207475726E733D200087
:107E0000112484B714BE81FFF0D085E080938100F7
:107E100082E08093C00088E18093C10086E0809377
:107E2000C20080E18093C4008EE0C9D0259A86E02C
:107E300020E33CEF91E0309385002093840096BBD3
:107E4000B09BFECF1D9AA8958150A9F7CC24DD24C4
:107E500088248394B5E0AB2EA1E19A2EF3E0BF2EE7
:107E6000A2D0813461F49FD0082FAFD0023811F036
:107E7000013811F484E001C083E08DD089C08234E0
:107E800011F484E103C0853419F485E0A6D080C0E4
:107E9000853579F488D0E82EFF2485D0082F10E0AE
:107EA000102F00270E291F29000F111F8ED06801E7
:107EB0006FC0863521F484E090D080E0DECF843638
:107EC00009F040C070D06FD0082F6DD080E0C81688
:107ED00080E7D80618F4F601B7BEE895C0E0D1E017
:107EE00062D089930C17E1F7F0E0CF16F0E7DF06D8
:107EF00018F0F601B7BEE89568D007B600FCFDCFD4
:107F0000A601A0E0B1E02C9130E011968C91119780
:107F100090E0982F8827822B932B1296FA010C0160
:107F200087BEE89511244E5F5F4FF1E0A038BF0790
:107F300051F7F601A7BEE89507B600FCFDCF97BE46
:107F4000E89526C08437B1F42ED02DD0F82E2BD052
:107F50003CD0F601EF2C8F010F5F1F4F84911BD097
:107F6000EA94F801C1F70894C11CD11CFA94CF0C13
:107F7000D11C0EC0853739F428D08EE10CD085E9AC
:107F80000AD08FE07ACF813511F488E018D01DD067
:107F900080E101D065CF982F8091C00085FFFCCF94
:107FA0009093C60008958091C00087FFFCCF809118
:107FB000C00084FD01C0A8958091C6000895E0E648
:107FC000F0E098E1908380830895EDDF803219F02E
:107FD00088E0F5DFFFCF84E1DECF1F93182FE3DFCA
:107FE0001150E9F7F2DF1F91089580E0E8DFEE27F6
:047FF000FF270994CA
:027FFE00040479
:00000001FF
